:040000000CEF00F011
:10000800E9CF5AF7EACF5BF7E1CF5CF754EF21F07D
:1000180006EEA3F02A0EF66E0E0EF76E10EE17F02F
:1000280025EC00F000EE00F016EEA3F01EEC00F058
:10003800E8EF24F0EE6AE550E150FCE1E250FAE125
:1000480012000900F5CFEEFFE550E150FAE1E25069
:04005800F8E11200B9
:100E0000000000320064009600C800FA002C015E69
:100E1000019001C201F401260258028A02BC02EECE
:100E200002200352038403B603002308281435FF6D
:100E3000000C0015031F100C0F18FF1D0000FFFF12
:100E40001800F36AE96AE16AD96A07EE02F0080E4F
:100E5000EE6AE82EFDD7000E0501D56563EF0BF0B5
:100E6000110ED56163EF0BF0130E0601946502D0ED
:100E7000E6EC1AF006016D510EE06D5107E0110E1F
:100E80006D6104D06D051BEC17F003D0120E1BEC46
:100E900017F006016D6B6C51040A09E1020E00ECBB
:100EA00021F006019F2B020E9F6501D06C6B05019E
:100EB0006C5157E06C050701006F900E0C6F000E2F
:100EC0000D6B3FEC1FF0030E0001966FB30E976F92
:100ED000080E07012D6F2E6B6D0E0A6F050E0B6F3E
:100EE0000AC72BF70BC72CF7C0EC11F027EC24F046
:100EF000D80E07010025BAEC11F009E1100E0E6FB3
:100F0000900E0C6F0D6B005103EC13F00FD0D80E48
:100F100007010025B4EC11F0EF6208D0100E0E6F3F
:100F2000900E0C6F0D6B0051FEEC1DF00001EA6796
:100F300016D0030E966FC20E976F5A0E986F996F68
:100F40009A6F9B6F9C6F9D6F9E6F9F6F100E070136
:100F50000E6F900E0C6F0D6B120E03EC13F005016B
:100F60006C6B06019305D8A41200936B0701016B0B
:100F700091EC11F01EE2C80E0125A9EC11F0EF6210
:100F800006D0010E0C6F0129C6EC1EF00FD0C80E62
:100F900007010125E96EEA6A000EEA22040EEF62FB
:100FA00005D0020E0C6F0129C6EC1EF00701012BC3
:100FB000DFD706018D510CE0000E2BEC21F0010E65
:100FC00000EC21F006018D2B030E8D6501D08D6B99
:100FD000D96A0501D551D95C23E2C80ED924E96E3E
:100FE000EA6A000EEA22060EEF6218D04C0ED924EF
:100FF000E96EEA6A050EEA22EF2A4C0ED924E96E60
:10100000EA6A050EEA22010EEF6408D0C80ED92460
:10101000E96EEA6A000EEA22040EEF6ED92AD9D7E9
:10102000FF050FE106018F2B050E8F650AD08F6B30
:10103000976706D0020E0501FF6F06016F6B01D0A6
:10104000976B0501FF0509E1030E06016F6102D0F0
:1010500000EC21F006016F2B0FD0FF51020A0CE1CA
:10106000040E00EC21F006016F2B030E6F6504D017
:101070000501FF6B06016F6B0601862B1D0E866551
:1010800001D0866B900E07010C6F000E0D6B3FECCC
:101090001FF0016B91EC11F001E397D1D80E0125FF
:1010A000BAEC11F001E013D1B50E0125E96EEA6A40
:1010B000050EEA22EF500A6F0151080DF350070F99
:1010C0000B6F000FE96EEA6A010EEA22EF500A196F
:1010D00001E186D00151080DF350070F0A6F000F90
:1010E000E96EEA6A010EEA22B50E0125E16EE26AB6
:1010F000050EE222EFCFE7FF010E0001966FB00E62
:10110000976F07010151080D000EF324E96EEA6A9A
:10111000010EEA22EF500001986F07010151080DFE
:10112000F350010F0A6F000FE96EEA6A010EEA221E
:10113000EF500001996F07010151080DF350020FA4
:101140000A6F000FE96EEA6A010EEA22EF50000111
:101150009A6F07010151080DF350030F0A6F000F3A
:101160003CEC11F007010151080DF350040F0A6F18
:10117000000FE96EEA6A010EEA22EF5000019C6F4F
:1011800007010151080DF350050F0A6F000FE96EBA
:10119000EA6A010EEA22EF5000019D6F070101513A
:1011A000080DF350060F0A6F000FE96EEA6A010E90
:1011B000EA22EF5000019E6F07010151080DF35024
:1011C000070F0A6F000FE96EEA6A010EEA22EF507C
:1011D00000019F6F100E4AEC11F068EC18F0F2D08D
:1011E0000601860501E0EED0010E0001966FB00EFB
:1011F000976F07010151080D000EF324E96EEA6AAA
:10120000010EEA22EF500001986F07010151080D0D
:10121000F350010F0A6F000FE96EEA6A010EEA222D
:10122000EF500001996F07010151080DF350020FB3
:101230000A6F000FE96EEA6A010EEA22EF50000120
:101240009A6F07010151080DF350030F0A6F000F49
:10125000E96EEA6A010EEA22EF5000019B6F070176
:101260000151080DF350040F0A6F000FE96EEA6A8E
:10127000010EEA22EF5000019C6F07010151080D99
:10128000F350050F22EC11F09D6F07010151080D7D
:10129000F350060F0A6F000FE96EEA6A010EEA22A8
:1012A000EF5000019E6F07010151080DF350070F29
:1012B0000A6F000FE96EEA6A010EEA22EF500001A0
:1012C0009F6F100E4AEC11F068EC18F07BD0D80E2E
:1012D00007010125E96EEA6A0001000EEA22010E0B
:1012E000EF6270D0020E966FB00E976F070101513A
:1012F000080D000EF324E96EEA6A010EEA22EF50AF
:101300000001986F07010151080DF350010F0A6F9A
:10131000000FE96EEA6A010EEA22EF500001996FB0
:1013200007010151080DF350020F0A6F000FE96E1B
:10133000EA6A010EEA22EF5000019A6F070101519B
:10134000080DF350030F0A6F000F3CEC11F007017A
:101350000151080DF350040F0A6F000FE96EEA6A9D
:10136000010EEA22EF5000019C6F07010151080DA8
:10137000F350050F0A6F000FE96EEA6A010EEA22C8
:10138000EF5000019D6F07010151080DF350060F4A
:101390000A6F000FE96EEA6A010EEA22EF500001BF
:1013A0009E6F07010151080DF350070F22EC11F059
:1013B0009F6F100E07010E6F900E0C6F0D6B015199
:1013C000FEEC1DF00701012B65D60001EA6746D04F
:1013D000080E0701106F116BD60E0E6F050E0F6F02
:1013E000340E0C6F050E0D6FA8EC20F00D510C1192
:1013F00020E0080E2D6F2E6B340E07012B6F050EAB
:101400002C6FD60E296F050E2A6F27EC24F0010EE3
:101410000001966FC20E976F080E1AEC11F0C0EC27
:1014200011F027EC24F0100E13EC11F068EC18F01A
:101430002BD00601860528E1010E0001966FC20E31
:10144000976F080E1AEC11F0C0EC11F027EC24F0A5
:10145000100E13EC11F068EC18F016D0EA0514E148
:10146000020E966FC20E976F080E1AEC11F0C0ECC8
:1014700011F027EC24F0100E0E6F900E07010C6F88
:101480000D6B120EFEEC1DF00601830504E1050E46
:1014900000EC21F00CD0010E836509D0832B060EE1
:1014A00000EC21F0060E0601836501D0836B060176
:1014B00085053EE1982B030E98653AD0986BE16A5A
:1014C00001D0E12A0501D551E15C09E20001C80E15
:1014D000E124B4EC11F0EF62F4D7A4EC22F0590E41
:1014E0000601955D020E965923E3956B966B856B0D
:1014F000D96A0501D551D95C1BE2C80ED924E96E21
:10150000EA6A000EEA22EF50010A09E0C80ED92467
:10151000E96EEA6A000EEA22020EEF6207D0C80EF8
:10152000D924E96EEA6A000EEA22EF6AD92AE1D7E5
:1015300006016C51030A29E1D96AE16A01D0E12A66
:101540000501D551E15C1BE2EC0EE124E96EEA6A8B
:10155000000EEA22EF5007010A6F040E0A5DEFE267
:10156000E150DEEC10F0EBE0E150090DF328E96EFC
:10157000000EF420EA6EEF1CE2E0010ED96ED9668F
:1015800004D0040E06016C6F9F6B100E0701116FE3
:10159000126B0F6B106B5C0E0D6F050E0E6FC6ECB1
:1015A00024F0D96AE16A0501D551E15C19E2E15004
:1015B000DEEC10F00AE1E150D5EC10F006E1EC0EA3
:1015C000E124A9EC11F0EF6409D05C0ED924E96E96
:1015D000EA6A050EEA22E1CFEFFFD92AE12AE3D732
:1015E000D9505FE0D9500601885DD8B0886B5C0E99
:1015F0008825E96EEA6A050EEA22EF50D96E882B3B
:10160000EC0FA9EC11F0EF6410D0D9280701026F9C
:101610000369046905690669076970C608F7060168
:10162000702B900E0701096F49D0D9280701026F6E
:10163000D950090DF328E96E000EF420EA6EEF5040
:10164000036FD950090D020EF324E96E000EF42049
:10165000EA6EEF50046FD950090D030EF324E96EC2
:10166000000EF420EA6EEF50056FD950090D040EFC
:10167000F324E96E000EF420EA6EEF50066FD950A5
:10168000090D050EF324E96E000EF420EA6EEF500A
:10169000076F70C608F70601702BD950D5EC10F013
:1016A000C1D70701026B036B046905690669076905
:1016B00070C608F70601702B0701096B020EC2EC19
:1016C00010F01BEF20F006019305D8A41200936BD5
:1016D000070102690369046905690669076970C63B
:1016E00008F70601702B910E0701096F020EC2EC7C
:1016F00010F01BEC20F00501FF050FE106018F2B18
:10170000050E8F650AD08F6B976706D0020E050114
:10171000FF6F06016F6B01D0976B0501FF0509E1B3
:10172000030E06016F6102D000EC21F006016F2B61
:101730001200FF51020AD8A41200040E00EC21F09E
:1017400006016F2B030E6F65030C0501FF6B06018D
:101750006F6B12000701046B056B066B076B07EEDE
:1017600008F0080EEE6AE82EFDD707EE10F0080E1E
:10177000EE6AE82EFDD7E16AE16AD96A026B800E53
:1017800007010225E96EEA6A030EEA22010EEF6202
:10179000B9D20251040D000EF324E96E040EF420B8
:1017A000EA6EEECF04F7EECF05F7EECF06F7EECFF9
:1017B00007F7080E2D6F2E6B0251080D800EF324D3
:1017C000186F010EF420196F18C72BF719C72CF7E3
:1017D000080E296F070E2A6F27EC24F0800E0701F0
:1017E0000225E96EEA6A030EEA22EF6A186B09EC39
:1017F00011F0D8B41919B00ED8B41A19181101E0A3
:10180000E9D004C703F7032905E0035103E0100EF4
:10181000036527D00501FF05010E04E0FF6F0601F7
:101820006F6B010E0601976FD96A0501D551D95C1E
:1018300006E2140EFDEC10F002E0D92AF6D7D551DD
:10184000D95C01E25FD2100ED5615CD2D55101E1C5
:1018500059D2D52BD5C52BF7F7EC10F067EC23F058
:1018600051D2080E2D6F2E6B080E2B6F070E2C6FAA
:101870000351080DF350F80F186F000E07011825DB
:10188000296F2A6B010E2A2327EC24F00351FF0F46
:10189000186F140E07011825E96EEA6A050EEA2290
:1018A000010EEF6E0F390F0B006F0F510F0B016F11
:1018B00006016C0506E10701005103E0020E060176
:1018C0006C6F080E07012D6F2E6B0351090DF70E7B
:1018D000F324186FFF0EF420196F18C72BF719C7E0
:1018E0002CF7100E296F070E2A6F27EC24F00351F6
:1018F000ECEC10F0EF6204D0040E116F410E44D0F6
:1019000007010151020A3EE00151030A30E13AD0D9
:10191000020E116F440E176F0351FF0F186FC80EA0
:1019200007011825E6EC10F0EF622FD00351FF0FEE
:10193000186FC80FE96EEA6A000EEA22030EEF6E16
:1019400024D0030E116F420EE6D70351FF0F186F1C
:10195000C80E07011825E96EEA6A000EEA22030E96
:10196000EF6E116F420E10D0116B176B0ED000513D
:10197000010ACEE0030ACCE0010AE3E0070AE5E051
:101980000105F2E11169880E176F070110691269EC
:10199000136914691569162B080E2D6F2E6B100E26
:1019A0002B6F070E2C6F0351090DF70EF324296FCF
:1019B000FF0EF4202A6F27EC24F003510501D561B6
:1019C000A1D103C7D5F5D5C52BF7F7EC10F067EC1F
:1019D00023F098D1186B09EC11F0D8B41919B10E95
:1019E000D8B41A19181143E104C7E1FFE12805E052
:1019F000E15003E0100EE16424D00501FF05010E63
:101A000004E0FF6F06016F6B010E0601976FD96A44
:101A10000501D551D95C06E2140EFDEC10F002E090
:101A2000D92AF6D7D551D95C01E26CD1100ED56117
:101A300069D1D52BD5C52BF7F7EC10F067EC23F067
:101A400061D1E150FF0F186F140E07011825E96EE0
:101A5000EA6A050EEA22010EEF6EE150090DFD0E55
:101A6000F324E96EFF0EF420EA6EEF2A4BD1186BD7
:101A70000551196F06511A6F07511B6F1A295E0E17
:101A8000D8B41919180ED8B41B19181131E108511E
:101A9000240A01E037D10F51420A01E033D10A5143
:101AA000FE0A01E02FD10B51EF0A01E02BD1060114
:101AB000856728D1E16A0501D551E15C01E322D1B6
:101AC000C80EE124E96EEA6A000EEA22EF500EE148
:101AD000C80EE124E96EEA6A000EEA22010EEF6EFA
:101AE0000601856F956B966B030E986FE12AE3D71D
:101AF000186B09EC11F0D8B41919C10ED8B41A1921
:101B000018111EE104C7E1FFE150090DFD0EF32499
:101B1000E96EFF0EF420EA6EEF2AE150FF0F070195
:101B2000186FC80FE96EEA6A000EEA22010EEF6232
:101B3000E9D0E150FF0F186FC80FE6EC10F03DD070
:101B4000186B09EC11F0D8B41919C30ED8B41A19CE
:101B500018114DE104C7D9FFD950090DFD0EF3242A
:101B6000E96EFF0EF420EA6EEF2AD950FF0F07014D
:101B7000186FC80FE96EEA6A000EEA22030EEF62E0
:101B80001ED0080514E1D950FF0F186FC80FE96E79
:101B9000EA6A000EEA22060EEF6ED950FF0F186FA8
:101BA0004C0FE96EEA6A050EEA22EF6A03D00905D6
:101BB00001E0A8D0D950ECEC10F0EF6EA3D0D950D2
:101BC000FF0F0701186FC80FE96EEA6A000EEA22DC
:101BD000040EEF6297D0086795D0D950FF0F186FA9
:101BE000C80FE96EEA6A000EEA22050EE6D7186B06
:101BF00009EC11F0D8B41919B30ED8B41A19181188
:101C000029E104C703F7110E03617CD0000E0365C0
:101C100079D00351090DFD0EF324E96EFF0EF42077
:101C2000EA6EEF2A0701035104EC1FF005016C670F
:101C300069D0080E07012D6F2E6B080E2B6F070E53
:101C40002C6F6D0E296F050E2A6F27EC24F003C749
:101C50006CF558D0186B09EC11F0D8B41919F00EC6
:101C6000D8B41A1918110EE104C7D9FFD950FF0FC3
:101C7000186F240E07011825E96EEA6A050EEA229C
:101C8000000E9BD7186BB9EC10F0D8B41819C00E21
:101C9000D8B41A19180ED8B41B1907E1080E1C6F16
:101CA000070E1D6FF8EC19F02DD0186BB9EC10F081
:101CB000D8B41819C20ED8B41A19180ED8B41B19F2
:101CC0000FE1080E2D6F2E6B080E2B6F070E2C6F79
:101CD000340E0701296F050E2A6F27EC24F012D06D
:101CE0000751040AF60ED8B40419F50ED8B4051934
:101CF000020ED8B4061906E1080E1C6F070E1D6F00
:101D000088EC0EF00701022B3F0E026538D53F0C20
:101D1000D96A07EE1EF0080EEE6AE82EFDD7080E0F
:101D20002D6F2E6B1CC72BF71DC72CF71E0E296FAE
:101D3000070E2A6F27EC24F0230E1CC7E9FF1DC7EE
:101D4000EAFFEF62230C070E1C25E96E000E1D2131
:101D5000EA6E160EEF62160C1C29E96E000E1D21AC
:101D6000EA6E010EEF625AD0020E1C25E96E000EDB
:101D70001D21EA6EEF5012E1030E7FEC11F0EF62CD
:101D80000DD0030E296F000E2A6B85EC25F007019C
:101D9000206F00F000F000F000F02FD0020E1C25A4
:101DA000E96E000E1D21EA6EEF50E16EE1CF2BF7D8
:101DB000030E296F000E2A6B67EC23F000F000F091
:101DC00000F000F0A50E07012B6F0A0E296F000E20
:101DD0002A6B67EC23F000F000F000F000F0030E37
:101DE000A4EC11F085EC25F00701216F00F000F064
:101DF00000F000F0206B21C7D5F5230E07011E6F00
:101E0000160E256F1E0E96EC11F01BEC20F0010E45
:101E10008CEC11F081EC23F0818A12001C2986ECF5
:101E200011F0EF622DD01C25E96E000E1D21EA6E27
:101E3000EF502B6F080E296F000E2A6B67EC23F012
:101E400000F000F000F000F0080EA4EC11F085ECBA
:101E500025F00701216F00F000F000F000F0230EE4
:101E60001E6F206B160E256F1E0E96EC11F01BECEC
:101E700020F0010E8CEC11F081EC23F0818A12002D
:101E80001C29E96E000E1D21EA6E030EEF62A3D03D
:101E9000020E1C25E96E000E1D21EA6EEF502B6F1D
:101EA000040E296F000E2A6B67EC23F000F000F09F
:101EB00000F000F0030E07011C25E96E000E1D2145
:101EC000EA6EEF502B6F050E296F000E2A6B67EC40
:101ED00023F000F000F000F000F0040E07011C25D4
:101EE000E96E000E1D21EA6EEF502B6F060E296F72
:101EF000000E2A6B67EC23F000F000F000F000F019
:101F0000050E07011C25E96E000E1D21EA6EEF503B
:101F10002B6F070E296F000E2A6B67EC23F000F081
:101F200000F000F000F05A0E07012B6F090E296F28
:101F3000000E2A6B67EC23F000F000F000F000F0D8
:101F4000040EA4EC11F085EC25F00701206F00F0E1
:101F500000F000F000F0050E296F000E2A6B85ECF2
:101F600025F00701216F00F000F000F000F0060EF0
:101F7000296F000E2A6B85EC25F00701226F00F017
:101F800000F000F000F0070E296F000E2A6B85ECC0
:101F900025F00701236F00F000F000F000F0090EBB
:101FA000296F000E2A6B85EC25F00701246F00F0E5
:101FB00000F000F000F0230E1E6F160E256F1E0EAF
:101FC00096EC11F01BEC20F0010E8CEC11F081EC82
:101FD00023F0818A12001C29E96E000E1D21EA6E91
:101FE000040EEF62040C020E7FEC11F0EF620ED0D3
:101FF00006016D67010C030E07011C25E96E000E3A
:102000001D21EA6EEF5006016D6F1200020E1C25B5
:1020100086EC11F0EF62020CD96A0701346B356B64
:10202000D950020DF350010F266F26C7F6FF0E0E92
:10203000F76E000EF86E0900F5CF27F70900F5CF0F
:1020400028F7280E2725326F000E2821336F45EC24
:102050001EF0346B356BD950020DF350010F266F13
:1020600026C7F6FF0E0EF76E000EF86E0900F5CFCC
:1020700032F70A00F5CF33F745EC1EF0020E0601E9
:10208000836FD80ED924E96EEA6A000EEA22EF6A5D
:10209000D950020DA00EF324E96EEA6A000EEA227E
:1020A000EE6AED6AD924E96EEA6A050EEA22EF6A61
:1020B00007012B6BD950020D200E73EC11F067EC69
:1020C00023F007012B6BD950020D210E73EC11F098
:1020D00067EC23F0D92A130ED9649FD7D5EF20F0EF
:1020E000000E0621EA6EEF5012000C51020DF35063
:1020F000010F1D6F1DC7F6FF0E0EF76E000EF86E76
:102100000900F5CF21F70A00F5CF22F71200050EDE
:102110001C25E96E000E1D21EA6EEF501200040E20
:102120001C25E96E000E1D21EA6EEF501200030E11
:102130001C25E96E000E1D21EA6EEF501200020E02
:102140001C25E96E000E1D21EA6EEF5012001C29BD
:10215000E96E000E1D21EA6EEF5012001CC7E9FF68
:102160001DC7EAFFEF501200186F1969180E1A6F99
:1021700012000551196F06511A6F07511B6F19296B
:10218000F60E1200506F070E516F080E4F6F1D0EA6
:102190004B6F740E4C6F4D69180E4E6F1200FD0B95
:1021A000026F1E0E016F320E1200090D070EF3248E
:1021B000E96E000EF420EA6EEF501200090DF328CC
:1021C000E96E000EF420EA6EEF501200E96EEA6A42
:1021D000000EEA22020E1200FF0F186F3C0E0701DC
:1021E0001825E96EEA6A050EEA22AA0E1200030E0D
:1021F0000701296F000E2A6B1200D924E96EEA6AE2
:10220000050EEA22EF5012000701266F000E276B21
:1022100012000551196F06511A6F07511B6F1B51A0
:10222000180AF60E12000E6F900E07010C6F0D6B60
:10223000120E120007012D6F2E6B340E2B6F050E40
:102240002C6F12000A6F000FE96EEA6A010EEA2293
:10225000EF500001120007014B6F000E4C6B120093
:10226000516F080E4F6FB6C64BF7B7C64CF7B8C6DE
:102270004DF7B9C64EF71200E96EEA6A010EEA227E
:10228000EF5000019B6F1200F324296F000EF42021
:102290002A6F120007010E6F900E0C6F0D6B01512B
:1022A0001200296F000EF4202A6F12004D6F000EED
:1022B0004E6B15C7E9FF16C7EAFFEECF4BF7EDCF20
:1022C0004CF7120007014B6F000E4C6B1200516F60
:1022D000080E4F6FB6C64BF7B7C64CF7B8C64DF7EA
:1022E000B9C64EF71200F324296F000EF4202A6FAE
:1022F00012003025326F000E3121336F12001C2581
:10230000E96E000E1D21EA6E010E1200E96E000E4C
:102310001D21EA6E020E120007014B6F000E4C6B7E
:1023200012000501D5510701015D1200506F070E23
:10233000516F080E4F6FF60E4B6FF50E4C6F020E7D
:102340004D6F040E4E6F12000701296F000E2A6BAD
:102350001200E96EEA6A000EEA22030E120007017B
:10236000266F000E276B1200E96EEA6A000EEA2261
:10237000010E1200E96EEA6A000EEA22EF50120026
:10238000980E296F000E2A6B12000701296F000EAC
:102390002A6B12000701296F000E2A6B1200070139
:1023A000006B016B07EE02F0090EEE6AE82EFDD716
:1023B00007EE0BF0090EEE6AE82EFDD70601A00528
:1023C000D8A41200A06B8E2B0701026B036B046B69
:1023D000056B0501FE290701066F076B086B8EC6AA
:1023E00009F70501FE2907010B6F0C6B0D6B0E6BD6
:1023F0000F6B106B116B06018E510F0B0701126FE3
:10240000EC0E0501FE25E96EEA6A000EEA22EF50A5
:102410000701146F030E145D6CE20501FE51090DF6
:10242000F328E96E000EF420EA6EEF5005E1070193
:10243000076B056B0D6B12D00501FE51090DF328DA
:10244000E96E000EF420EA6E020EEF6209D0800EF3
:102450000701076F010E056F400E0D6F0E6B51D017
:102460000501FE51090DF328E96E000EF420EA6E15
:10247000030EEF6207D0800E0701076F020E056F93
:10248000600EEBD70501FE51090DF328E96E000E31
:10249000F420EA6E040EEF620ED0800E0701076F83
:1024A000030E056F800E0D6F200E0E6F030E0C6F66
:1024B000400E0F6F26D00501FE51090DF328E96E7D
:1024C000000EF420EA6EFF0EEF621BD0FE51090DE4
:1024D000070EF324E96E000EF420EA6E880EEF6218
:1024E00010D0020E0701026F200E076F400E0E6F14
:1024F00008D0010E026F200E076F600E0E6F030EE4
:10250000106F070111510EC714F7156B1427000E39
:10251000152310511427000E15230C511427000EFB
:1025200015230F511427000E152312511427000EE6
:1025300015230B511427000E15230D511425F36E8E
:10254000000E1521F46E630E146F010E156FF3501B
:102550001425F36E000E1521F46EF3CF14F7F4CFAB
:1025600015F7040E166FD89015331433162FFBD7BA
:102570001451F3240F0B136F12C714F70F0E141717
:102580001351100DF3501425126F080E1D6F0B0E12
:102590001B6F070E1C6F1D0E176F300E186FFE0E8F
:1025A000196F180E1A6FB3EC15F0080E1D6F0B0E95
:1025B0001B6F070E1C6F1D0E176F310EB4EC10F061
:1025C000B3EC15F0050E4B6F000E4C6B81EC23F055
:1025D000080E1D6FA30E07011B6F060E1C6F1D0E4C
:1025E000176F400EB4EC10F0B3EC15F0050E4B6F06
:1025F000000E4C6B81EC23F00501FE2BD551FE5DE6
:10260000D8B0FE6B1200E8CFD9FF07EE0FF0200E16
:10261000EE6AE82EFDD7346B356BD950020DF350BE
:10262000010F2F6F2FC7F6FF0E0EF76E000EF86E1C
:102630000900F5CF30F70900F5CF31F7280E79EC16
:1026400011F045EC1EF0A50E0F6F5A0E106F000E24
:10265000D924E96EEA6A050EEA22EF500701116FEC
:10266000D950020DA00EF324E96EEA6A000EEA22A8
:10267000EECF2FF7EDCF30F730C72FF7306B2F515C
:10268000126FD950020DA00EF324E96EEA6A000E13
:10269000EA22EF50136F0CC7E9FF0DC7EAFFEF50B6
:1026A000146F0C29E96E000E0D21EA6EEF50156FC4
:1026B000020E0C25E96E000E0D21EA6EEF50166F2A
:1026C000030E0C25E96E000E0D21EA6EEF50176F18
:1026D000040E0C25E96E000E0D21EA6EEF50186F06
:1026E000050E0C25E96E000E0D21EA6EEF50196FF4
:1026F000060E0C25E96E000E0D21EA6EEF501A6FE2
:10270000070E0C25E96E000E0D21EA6EEF501B6FCF
:10271000080E0C25E96E000E0D21EA6EEF501C6FBD
:10272000090E0C25E96E000E0D21EA6EEF501D6FAB
:102730000A0E0C25E96E000E0D21EA6EEF501E6F99
:102740000B0E0C25E96E000E0D21EA6EEF501F6F87
:102750000C0E0C25E96E000E0D21EA6EEF50206F75
:102760000D0E0C25E96E000E0D21EA6EEF50216F63
:102770000E0E0C25E96E000E0D21EA6EEF50226F51
:102780000F0E0C25E96E000E0D21EA6EEF50236F3F
:10279000050E0E25386F396B000E3923366B376BFB
:1027A000D950020DF350010F2F6F2FC7F6FF0E0EF9
:1027B000F76E000EF86E0900F5CF30F70900F5CF7F
:1027C00031F7280E3025346F000E3121356F0F0E92
:1027D000326F070E336F66EC1CF0D80ED924E96E09
:1027E000EA6A000EEA22010EEF6ED950020DA00E29
:1027F000F324E96EEA6A000EEA22EE6AED6A070146
:10280000346B356BD950020DF350010F2F6F2FC76A
:10281000F6FF0E0EF76E000EF86E0900F5CF30F7DA
:102820000900F5CF31F7290E79EC11F045EF1EF0D4
:10283000E8CFD9FF0A6B0B6B0C6B0D6BE16AF46A86
:10284000D96667D0400E606E03C7E1FF02C7E9FF9B
:1028500001C7F3FF00C708F7E9CF0EF7F00E0E1718
:10286000050E0F6FD8900E330F2FFCD70E51D96E77
:10287000E138E842F80BD910F46EE9CF0EF71C0EE0
:102880000E17D8900E37D8900E37D8900E35D96ED7
:10289000E950030BD9100809D96EF4CFE0FED9CF67
:1028A000E1FEF3CFE2FE08C7E3FE07C70AF706C75B
:1028B0000BF705C70CF704C70DF70BC70EF7050E8E
:1028C0000F6FD8900E330F2FFCD70A39E842F80B60
:1028D0000E110E01F86F0BC70EF7D89007010E37D7
:1028E000D8900E37D8900E37E00E0E170B51030B11
:1028F0000E1108090E01F96F0CC7FAFE0DC7FBFE99
:10290000666A676A686A696A6A6A6B6A6C6A6D6A2B
:102910001200D904D8A41200400E0F01306F03C773
:10292000E1FF02C7F3FF01C7D9FF00C7E9FFF3CFFB
:102930000EF7F00E07010E17050E0F6FD8900E332D
:102940000F2FFCD70E51096FE138E842F80B09113F
:10295000F46EF3CF0EF71C0E0E17D8900E37D890EA
:102960000E37D8900E35E16EF350030BE1100809D5
:10297000E16EF4CFE4FEE1CFE5FED9CFE6FEE9CF8C
:10298000E7FE07C70AF706C70BF705C70CF704C72A
:102990000DF70BC70EF7050E0F6FD8900E330F2FE4
:1029A000FCD70A39E842F80B0E110E01FC6F0BC779
:1029B0000EF7D89007010E37D8900E37D8900E3703
:1029C000E00E0E170B51030B0E1108090E01FD6FDF
:1029D0000CC7FEFE0DC7FFFE0F01366B376B386B61
:1029E000396B3A6B3B6B3C6B3D6B1200006B016BC0
:1029F000026B036BB4EC24F00A0E0701266F000E85
:102A0000276BB2EC25F09490949294948B80050EF1
:102A1000266F000E276BB2EC25F08B84FFEC25F0BF
:102A2000010E4B6F000E4C6B81EC23F00E0E37EC59
:102A300025F0046F04BF0BD0800E266F0F0E46ECFE
:102A400025F0010E4B6F000E4C6B81EC23F0266BD2
:102A50000D0E46EC25F00A0E266F000E276BB2EC29
:102A600025F0266B0C0E46EC25F00A0E266F000EA4
:102A7000276BB2EC25F0266B2B0E46EC25F00A0EE8
:102A8000266F000E276BB2EC25F0266B2C0E46EC61
:102A900025F00A0E266F000E276BB2EC25F0030E10
:102AA000266F300E46EC25F00A0E266F000E276BBF
:102AB000B2EC25F0266B400E46EC25F00A0E266F90
:102AC000000E276BB2EC25F0266B500E46EC25F07D
:102AD0000A0E266F000E276BB2EC25F0FFC000F740
:102AE000FEC001F7FDC002F7FCC003F7080E076F38
:102AF000000E056F070E066F72EC1AF00A0E266FB5
:102B0000000E276BB2EC25F0440E266F600E46ECEB
:102B100025F0400E266F700E46EC25F0FA0E056F7C
:102B2000066B080EEAEC1FF0010E07014B6F000E5A
:102B30004C6B81EC23F0266B0F0E46EC25F0010E5A
:102B40004B6F000E4C6B81EC23F00E0E37EC25F032
:102B5000E00B04E0266B0F0E46EC25F0010E4B6FE8
:102B60004C6B81EF23F0E16A1F6BD96AE96A206B35
:102B7000216B226B236B0001FF5107011A190EE133
:102B80000001FE510701191909E10001FD5107017A
:102B9000181904E10001FC510701171965E0C80E7E
:102BA000266F000E276BB2EC25F017C7FCF018C794
:102BB000FDF019C7FEF01AC7FFF0FFC020F7FEC0F6
:102BC00021F7FDC022F7FCC023F721C724F7F00E40
:102BD0002417050E256FD8902433252FFCD72451B8
:102BE000D96E2051080DF350D9241E6F21C724F748
:102BF0001C0E2417D8902437D8902437D890243529
:102C0000F46E2151030BF424080FF46E1EC726F74F
:102C1000310E46EC25F0640E266F000E276BB2ECE9
:102C200025F0F4CF26F7320E46EC25F0640E266F21
:102C3000000E276BB2EC25F022C726F7330E46ECC8
:102C400025F0640E266F000E276BB2EC25F023C72B
:102C500026F7340E46EC25F0640E266F000E276B27
:102C6000B2EC25F001D01F2B300E37EC25F00B0B0A
:102C700003E0F90E1F65F7D7F36A1D51F35C14E208
:102C8000F3501B25E96E000E1C21EA6EEF50266FF3
:102C9000F350360F46EC25F0050E266F000E276B1D
:102CA000B2EC25F0F32AE9D78B921DC726F7350E33
:102CB00046EC25F0050E266F000E276BB2EC25F0D2
:102CC0000B0E266F300E46EC25F0050E266F000E1B
:102CD000276BB2EC25F08B8212000701086B096BA1
:102CE0000A6B0B6B0C6B0D6B0E6B0F6B006B016B40
:102CF000026B036B046B056B066B076B106B116B40
:102D0000126B136B0601A2671200010EA26FB4ECE6
:102D100023F08B90030E296F000E2A6B85EC25F0B3
:102D20000501D56F00F000F000F000F0D55103E090
:102D3000100ED5650CD0D56BD5C52BF7030EC5ECA1
:102D400011F067EC23F000F000F000F000F0090E45
:102D5000CAEC11F085EC25F00701106F116B126BB6
:102D6000136B00F000F000F000F010515A0A11113E
:102D7000121113113CE1040E296F000E2A6B85EC31
:102D800025F00701086F096B0A6B0B6B00F000F070
:102D900000F000F0050E296F000E2A6B85EC25F07F
:102DA00007010C6F0D6B0E6B0F6B00F000F000F065
:102DB00000F0060E296F000E2A6B85EC25F0070146
:102DC000006F016B026B036B00F000F000F000F08D
:102DD000070E296F000E2A6B85EC25F00701046FA2
:102DE000056B066B076B00F000F000F000F0080EBA
:102DF000CAEC11F085EC25F006016E6F00F000F0D2
:102E000000F000F06E05D8B412006E51020AD8B47A
:102E100012006E51030AD8B41200030E6E6F6EC614
:102E20002BF7080EC5EC11F067EC23F000F000F072
:102E300000F000F01200E8CF0CF707EE0DF0100ED6
:102E4000EE6AE82EFDD70601B66BB769B869180EB1
:102E5000B96F07010C51120A05E1C20E0601B61343
:102E6000000E18D00C291D6F1E6B000E1E231F6B49
:102E70001EBF1F071F51206F1D510601B61307010A
:102E80001E510601B71307011F510601B8130701B0
:102E900020510601B913100E0701516F526B4F6B91
:102EA000506B0C51020DF350010F1D6F1DC7F6FF43
:102EB0000E0EF76E000EF86E0900F5CF1EF7090032
:102EC000F5CF1FF7280E1E254D6F000E1F214E6FE8
:102ED0000D0E4B6F070E4C6F18EC1DF00D51A50A2F
:102EE0004BE10E515A0AB80E256F0B0E266F000EDD
:102EF000236F48E1246B75EC10F0C0EC1CF0010E60
:102F0000256F266B236B246B0C51020DF350010FC0
:102F10001D6F1DC7F6FF0E0EF76E000EF86E09004E
:102F2000F5CF1EF70900F5CF1FF7280E1E25216FDC
:102F3000000E1F21226F4FEC1BF0580E256F020E62
:102F4000266F236B246B0C51020DF350010F1D6F84
:102F50001DC7F6FF0E0EF76E000EF86E0900F5CFD6
:102F60001EF70900F5CF1FF7290E1E25216F000E51
:102F70001F21226FC0EF1CF0B80E256F0B0E266FBD
:102F8000000E236B246F75EC10F0C0EF1CF0026B89
:102F9000036B046B056BD96AE16AF36AF46A3FEC70
:102FA00022F00601836BD96A020E0701516F526B42
:102FB0004F6B506BD950020DF350010F066F06C7CF
:102FC000F6FF0E0EF76E000EF86E0900F5CF07F74C
:102FD0000900F5CF08F7280E07254D6F000E0821D0
:102FE0004E6F020E4B6F070E4C6F18EC1DF0025126
:102FF000A50A0FE103515A0A0CE1010E0601836F85
:103000000001D80ED924E96EEA6A000EEA22020E07
:1030100059D0D950020D200EF32451EC11F085EC5B
:1030200025F0E96ED950020D210EF324070151EC71
:1030300011F085EC25F0E16EE9500701016FE150D8
:10304000006F0029D8B4012903E00151001120E1EB
:10305000346B356BD950020DF350010F066F06C764
:10306000F6FF0E0EF76E000EF86E0900F5CF32F780
:103070000A00F5CF33F745EC1EF0D950020DA00E33
:10308000F324E96EEA6A000EEA22EE6AED6A0CD0D9
:10309000D950020DA00EF324E96EEA6A000EEA226E
:1030A00000C7EEFF01C7EDFF000ED924E96EEA6A02
:1030B000050EEA22EF6A0001D80ED924E96EEA6A09
:1030C000000EEA22EF6ED92A130ED9646DD7130CC5
:1030D000E8CF0FF7E16AD96A0EC719F70CC717F7DF
:1030E0000DC718F70F51020DA00EF3240701156F3D
:1030F000166B000E16230F51020DF350010F106FC7
:1031000010C7F6FF0E0EF76E000EF86E0900F5CF31
:1031100013F70A00F5CF14F770EC1DF00F51020DF4
:10312000A00EF324E96EEA6A000EEA22EECF10F751
:10313000EDCF11F711C710F70701116B1051D96EC0
:103140000F51020DA00EF324E96EEA6A000EEA2286
:10315000EF50E16ED9CF2BF70F51020D200E44EC4A
:1031600011F067EC23F0E1CF2BF707010F51020DAF
:10317000210E44EC11F067EC23F007010F51020D12
:10318000A00EF324E96EEA6A000EEA22EECF10F7F1
:10319000EDCF11F7B80E105D0B0E1159D8A012002B
:1031A0000F51020DA00EF324E96EEA6A000EEA2226
:1031B000EE6AED6A0F25E96EEA6A050EEA22010E53
:1031C000EF6E346B356B0F51020DF350010F106F22
:1031D00010C7F6FF0E0EF76E000EF86E0900F5CF61
:1031E00032F70A00F5CF33F745EF1EF09B2B010EA7
:1031F0009B65010C9B6BF5EC21F0D9EC25F081A4CB
:1032000077D0D96A0501D551D95C0AE2240ED924B8
:10321000E96EEA6A050EEA22010EEF6ED92AF2D7AC
:103220000601996B010E2BEC21F00601992B9C6B8A
:10323000AAEC0BF006018C05FBE18C6B9C2BC80EF5
:103240009C650AD09C6B020E996501D017D0010EC7
:103250002BEC21F00601992BD96AE16A0501D551C1
:10326000E15C0AE2240EE124E96EEA6A050EEA2234
:10327000EF50D926E12AF2D7D966DAD7010E060136
:103280006C6F0501FF6B400E0701116F126B0F6B26
:10329000106B800E0D6F030E0E6FC6EC24F0900EB7
:1032A000116F000E126B0F6B106B07010D6B0E6B25
:1032B000C6EC24F0100E116F126B0F6B106BEC0E3E
:1032C00007010D6F000E0E6BC6EC24F0AAEC0BF09C
:1032D00081B403D006016C6B06D006016C51020A62
:1032E000F5E1030E6C6F010E8D6F946B00F000F032
:1032F00006019B6BAEEF1BF0686B6D6B6E6B6F6BBB
:10330000706B6B6B6C6B696B6A6B81AA02D0609E91
:10331000120061506C6F62506B6F030B716F726BB8
:103320006BC773F76CC774F7D89074337333D89046
:1033300074337333D89074337333FC0E7315756F15
:103340007451766F71517511776F72517611786F74
:1033500077C76DF778C76EF76F6B706B63506A6FE6
:103360006450696F6DC771F76EC772F76FC773F7F7
:1033700070C774F772C774F771C773F7726B716BAC
:1033800069517111756F6A517211766F000E731168
:10339000776F000E7411786F62C7E9FF63C7EAFFA9
:1033A00075C7EEFF76C7EEFF77C7EEFF78C7EDFF74
:1033B00064C7E9FF65C7EAFF65CFEFFF686B64C7C5
:1033C000E9FF65C7EAFFEF50685D10E2660E682509
:1033D000E96EEA6A0F0EEA2268516625E16E000E78
:1033E0006721E26EEFCFE7FF682BE9D7609E1200FE
:1033F0000A0E276FAEEC10F066EC24F0256F0A0E73
:10340000276FAEEC10F04CEC23F0266F2639F00B52
:103410002511246F0A0E276FA7EC10F066EC24F03C
:10342000256F0A0E276FA7EC10F04CEC23F0266FE7
:103430002639F00B2511236F0A0E276F9FEC10F031
:1034400066EC24F0256F0A0E276F9FEC10F04CEC11
:1034500023F0266F2639F00B2511226F010E216F04
:103460000A0E276F97EC10F066EC24F0256F0A0E19
:10347000276F97EC10F04CEC23F0266F2639F00BF9
:103480002511206F0A0E276F8FEC10F066EC24F0E8
:10349000256F0A0E276F8FEC10F04CEC23F0266F8F
:1034A0002639F00B25111F6F0A0E276F87EC10F0DD
:1034B00066EC24F0256F0A0E276F87EC10F04CECB9
:1034C00023F0266F2639F00B25111E6F1E0E2A6F72
:1034D000070E2B6F070E286F296B100E276F320E09
:1034E0004BEF20F0E16AD96A0529E96E70EC10F023
:1034F000096FF00E0917050E0A6FD89009330A2FCD
:10350000FCD70951D96E05C7E9FF06C7EAFFEF509E
:10351000080DF350D924086F0529E96E000E062125
:10352000EA6EEF50096F1C0E0917D8900937D89032
:103530000937D8900935F36E0529E96E000E06218A
:10354000EA6EEF50030BF324080FF36E08C726F75B
:10355000310E46EC25F0640E266F000E276BB2ECA0
:1035600025F0F3CF26F7320E46EC25F0640E266FD9
:10357000000E276BB2EC25F0020E0525E96E000E59
:103580000621EA6EEF50266F330E46EC25F0640EEE
:10359000266F000E276BB2EC25F0030E0525E96EB1
:1035A00070EC10F0266F340E46EC25F0640E266F9A
:1035B000000E276BB2EC25F007C726F7350E46EC58
:1035C00025F0640E266F276BB2EF25F0E16A5E0EE0
:1035D000915D010E9259D8A01200916B926BD96A3D
:1035E0000501D551D95CD8B01200C50ED924E96EB9
:1035F000EA6A050EEA22EF5007010C6FD950090D57
:10360000060EF324E96E000EF420EA6EEF500C195A
:1036100018E0D950090D060EF324E96E000EF420CF
:10362000EA6EC50ED924E16EE26A050EE222EFCF02
:10363000E7FFEC0ED924E96EEA6A000EEA22EF6A8F
:103640002CD0EC0ED924E96EEA6A000EEA22EF5083
:1036500007010C6F040E0C5D20E2EC0ED924E96E1C
:10366000EA6A000EEA22EF2AEC0ED924E96EEA6A31
:10367000000EEA22030EEF6410D0080E116F126BD9
:10368000CC0E0F6F106BD950080D000EF3240D6F88
:103690000E6B010E0E23C6EC24F0D92AA1D707EE3B
:1036A0002BF0200EEE6AE82EFDD723C729F724C79A
:1036B0002AF72551295D26512A59D8B01200640EE7
:1036C0004D6F000E4E6B29C74BF72AC74CF71AEC0B
:1036D00022F04B51286F640E4D6F000E4E6B29C7C0
:1036E0004BF72AC74CF731EC23F04B51276F200ED4
:1036F000516F526B2751200DF3CF4FF7F4CF50F796
:10370000285121254D6F000E22214E6F2B0E4B6F3D
:10371000070E4C6F18EC1DF02B2905E12C29D8B4AD
:103720002D29D8B41200300E506F070E67EC11F03F
:103730001BEC20F0010E62EC11F081EC23F0380E4E
:10374000506F070E67EC11F01BEC20F0010E62ECDD
:1037500011F081EC23F0294B2A2BABD7FBEC23F0A3
:10376000140E04EC11F0B2EC25F0E9EC25F0140E87
:1037700004EC11F0B2EC25F0E1EC25F0140E266F0C
:10378000000E276BB2EC25F0BCEC25F0140E04EC17
:1037900011F0B2EC25F054EC25F0140E04EC11F00D
:1037A000B2EC25F03DEC26F0140E266F000E276BD0
:1037B000B2EC25F0F6EC14F0140E266F000E276B19
:1037C000B2EC25F005EC26F0140E266F000E276BE8
:1037D000B2EC25F079EC1FF0140E04EC11F0B2EC11
:1037E00025F00CEC1CF0140E266F000E276BB2ECCB
:1037F00025F0C7EC17F0140E04EC11F0B2EC25F034
:10380000400E116F126B0F6B106B800E07010D6F66
:10381000030E0E6FC6EF24F091EC25F0E80E2E6F2C
:10382000030E2F6F52EC24F01E0E016F320ECDEC02
:1038300021F0006F00A318D00051CFEC10F085EC00
:1038400022F0E80E2E6F030E2F6F52EC24F01E0EA6
:10385000016F320ECDEC21F0006F00A305D00051B6
:10386000CFEC10F085EC22F0D80E026F170E016F2E
:10387000320E85EC22F0026B300E016F320E85ECB9
:1038800022F0080E026F310E016F320E85EC22F02D
:10389000026B320E016F85EC22F0026B1D0E016F80
:1038A000320E85EC22F0026B1E0E016F320E85EC9B
:1038B00022F0400E026F1F0E016F320E85EC22F0D7
:1038C000026B1F0E016F320E85EF22F00F0E3415C2
:1038D0003A6F3B6B3AC73CF73BC73DF70C0ED890AD
:1038E0003C373D37E82EFBD73C5136133D5137135B
:1038F000343B353B0F0E34173551F00B34130F0E9C
:1039000035176DEC25F08D94030E586F000E596B32
:1039100058EC26F0020E7DEC21F006012B51EF0A47
:10392000180ED8B42A1904E1070135517DEC21F0B5
:10393000070134517DEC21F037517DEC21F03651F7
:103940007DEC21F0F36AF46A3851F35C3951F45894
:1039500012E2F35032253C6FE86AF3BEE868332187
:103960003D6F3CC7E9FF3DC7EAFFEF507DEC21F01A
:10397000F34AF42AE9D78D84F8EC25F061EF25F0BD
:1039800007EE2BF0100EEE6AE82EFDD723C729F7BD
:1039900024C72AF72551295D26512A59D8B012008B
:1039A000640E4D6F000E4E6B29C74BF72AC74CF7BC
:1039B0001AEC22F04B51286F640E4D6F000E4E6BC7
:1039C00029C74BF72AC74CF731EC23F04B51276F2F
:1039D000100E516F526B2751200DF3CF4FF7F4CFDC
:1039E00050F7285121254D6F000E22214E6F2B0ECE
:1039F0004B6F070E4C6F18EC1DF02B0E506F070E1F
:103A000030EC11F01BEC20F0010E2BEC11F081ECEE
:103A100023F0330E506F070E30EC11F01BEC20F04A
:103A2000010E2BEC11F081EC23F0294B2A2BB2D79D
:103A30000F0E4D15536F546B53C755F754C756F7B8
:103A40000C0ED89055375637E82EFBD755514F13EB
:103A5000565150134D3B4E3B0F0E4D174E51F00B30
:103A60004D130F0E4E178D94030E586F000E596BA9
:103A700058EC26F0030E7DEC21F006012B51EF0AE5
:103A8000180ED8B42A1904E107014E517DEC21F03B
:103A900007014D517DEC21F050517DEC21F04F514B
:103AA0007DEC21F0F36AF46A5151F35C5251F45801
:103AB00015E2FF0E7DEC21F0556FF3504B25566F4C
:103AC000E86AF3BEE8684C21576F56C7E9FF57C74D
:103AD000EAFF55C7EFFFF34AF42AE6D78D841200B8
:103AE000640E56EC11F01AEC22F04B511B6F640E71
:103AF0004D6F000E4E6B15C7E9FF16C7EAFFEECFFC
:103B00004BF7EDCF4CF731EC23F04B511A6F19C73F
:103B100038F7396B1A51200DF3CF36F7F4CF37F75A
:103B20001B511325346F000E1421356F17C732F760
:103B300018C733F766EC1CF015C7E9FF16C7EAFF94
:103B4000EE2A000EED22640E56EC11F01AEC22F073
:103B50004B511C6F1B19D8B41200346B356B1C51C0
:103B60001325326F000E1421336F45EF1EF0E8CF9E
:103B7000E9FF11EC24F0E950E924C2EC22F0FBEC5F
:103B800022F00009D8B412001551C2EC22F0FBEC6F
:103B900022F00009D8B4120011EC24F0D880E934E6
:103BA000C2EC22F0FBEC22F00009D8B412001A6B30
:103BB0001B6B16511A5D17511B591EE216EC23F0B0
:103BC00018C7E9FF19C7EAFFEF6EFF0E16251C6F35
:103BD000FF0E17211D6F1B1902E11A511C1904E178
:103BE000000E3DEC24F003D0010E3DEC24F0184B08
:103BF000192B1A4B1B2BDDD708EF25F0E8CF0FF759
:103C00000EC719F70CC717F70DC718F70F51020D9C
:103C1000A00EF3240701156F166B000E16230F512B
:103C2000020DF350010F106F10C7F6FF0E0EF76E66
:103C3000000EF86E0900F5CF11F70900F5CF12F765
:103C4000290E1125136F000E1221146F70EC1DF058
:103C50000F51020DA00EF324E96EEA6A000EEA226B
:103C6000EECF10F7EDCF11F7580E0701105D020EE1
:103C70001159D8A01200D80E0F25E96EEA6A00018A
:103C8000000EEA22020EEF6E020C0F0E3215F36EDA
:103C9000F46AF3CF36F7F4CF37F70C0ED8903637F7
:103CA0003737E82EFBD73651341337513513323BB3
:103CB000333B0F0E32173351F00B32130F0E331705
:103CC0006DEC25F0F8EC25F08D94030E586F000E86
:103CD000596B58EC26F0200E7DEC21F006012B519B
:103CE000EF0A180ED8B42A1904E1070133517DEC0C
:103CF00021F0070132517DEC21F035517DEC21F0AE
:103D000034517DEC21F08D84F8EC25F061EF25F045
:103D1000E16AD96A55C7F3FF54C7E9FF53C7F4FFF7
:103D200052C756F7E9CF57F7F00E07015717050EA0
:103D3000586FD8905733582FFCD75751E16EF3384E
:103D4000E842F80BE110D96EE9CF57F71C0E571770
:103D5000D8905737D8905737D8905735E16EE950FB
:103D6000030BE1100809E16ED9CF21FFE1CF22FF5B
:103D7000F4CF23FF56C724FF0F01266B276B286B58
:103D8000296B2A6B2B6B2C6B2D6B1200E8CFD9FFA4
:103D900007EE11F0080EEE6AE82EFDD7F60E0D6F55
:103DA0000E6BC30E0F6F180E106FD9501A6F196B70
:103DB00019C71BF71AC71CF7000E1CBFFF0E1D6F9B
:103DC0001E6F1B510D131C510E131D510F131E514D
:103DD00010130CC711F70C1D126F5A0E136F146FCE
:103DE000156F166F176F186F110E506F070E516F0A
:103DF000080E4F6F0DC74BF70EC74CF70FC74DF7A7
:103E000010C74EF71BEF20F0E8CFD9FF07EE20F0E8
:103E1000080EEE6AE82EFDD7F60E1C6F1D6BB30E72
:103E20001E6F180E1F6FD950296F286B28C72AF7ED
:103E300029C72BF7000E2BBFFF0E2C6F2D6F2A51B9
:103E40001C132B511D132C511E132D511F13206BAE
:103E5000216B226B236B246B256B266B276B200E4B
:103E6000506F070E516F080E4F6F1CC74BF71DC7E1
:103E70004CF71EC74DF71FC74EF71BEF20F00E0E75
:103E8000186F070E196F070E166F176B100E156F50
:103E9000320EB7EC1DF00CC7E9FF0DC7EAFF14C7DF
:103EA000EFFF0C29E96E000E0D21EA6E13C7EFFF3C
:103EB000020E0C25E96E000E0D21EA6E12C7EFFF0F
:103EC000030E0C25E96E000E0D21EA6E10C7EFFF00
:103ED000040E0C25E96E000E0D21EA6E0FC7EFFFF0
:103EE000050E0C25E96E000E0D21EA6E0EC7EFFFE0
:103EF0001200939A818A969A9688800E6F6E6EAEA3
:103F0000FED79BEC23F01D0E0701526F740E536F0A
:103F10005469180E556F88EC1EF00701046B056B91
:103F2000066B076B006B016B0269180E036F000EC6
:103F300018EC14F00701046B056B066B076B006B44
:103F4000016B020E026F040E036F010E18EC14F0E9
:103F5000210E706E6F6A6EBCFED7776A010E766EA8
:103F6000819A010C0701606B616B800E070161256E
:103F7000E96EEA6A030EEA22EF5023E16151080D6F
:103F8000800EF324666F010EF420676FC00E61256A
:103F9000646F656B030E65236151040D000EF324FD
:103FA000626F040EF420636F7CEC19F0800E070141
:103FB0006125E96EEA6A030EEA22010EEF6E606F78
:103FC00005D00701612B3F0E6165CFD760671200F6
:103FD000609E1200E8CFD9FFD9CF9DF605C779F6CC
:103FE00006C77AF606019D51080AD8A41200795135
:103FF000FA0A7A110BE10701266B2A0E46EC25F02E
:10400000B50E266F290E46EC25F010D07A05F40E79
:10401000D8B47919D8A412000701266B2A0E46ECF1
:1040200025F0980E266F290E46EC25F0010E266F1E
:10403000280E46EF25F081BA1200E16A0F0120A791
:1040400004D0E12AFA0EE164F9D74BC752F74CC706
:1040500053F74DC754F74EC755F788EC1EF020971D
:1040600077944FC725FFD96A07014F51D95C10E2F9
:10407000D9505025E96E000E5121EA6E260ED92442
:10408000E16EE26A0F0EE222EFCFE7FFD92AECD70A
:104090000F0120871200E8CFE9FF11EC24F0E9506E
:1040A000E924C2EC22F0FBEC22F00009D8B41200A3
:1040B0002751C2EC22F0FBEC22F00009D8B4120028
:1040C0002C6B2D6B28512C5D29512D5911E22AC7DB
:1040D000E9FF2BC7EAFFEF50C2EC22F0FBEC22F025
:1040E0000009D8B412002A4B2B2B2C4B2D2BEAD7CE
:1040F00008EF25F006018C051FE18C6B892B6E51B2
:104100007AEC24F000090CE0010E936F000E05011B
:10411000D56506D0110ED56103D0010E0601A06F42
:104120000601914B922B010E9E6F8951050A04E105
:10413000876702D0010E876F8951C80AD8A4120080
:10414000896B56EC26F0140E9461140C942B140C0D
:104150001007D8A0110707011029D8B4112922E0AF
:104160000EC7E9FF0FC7EAFFEF50126F0CC7E9FF58
:104170000DC7EAFFEF1811E00CC7E9FF0DC7EAFF12
:10418000EF50126F0EC7E9FF0FC7EAFFEF50125D45
:104190000C6F0D6BD8A00D0712000C4B0D2B0E4BA6
:1041A0000F2BD6D70C6B0D6B1200070107EE2DF00D
:1041B000080EEE6AE82EFDD7F60E296FF50E2A6F6F
:1041C000020E2B6F040E2C6F230E2D6F040E2E6F1C
:1041D000020E2F6F3069316B326B336B160E346FFA
:1041E0002D0E506F070E516F080E4F6F29C74BF7FA
:1041F0002AC74CF72BC74DF72CC74EF71BEF20F003
:10420000E8CFD9FF070107EE10F0080EEE6AE82E9E
:10421000FDD7A50E0C6F0D6F0E69180E0F6F230ED4
:10422000106FD9CF11F7111D126F136B146B156B33
:10423000166B160E176F100E506F070E516F080E8B
:104240004F6F0CC74BF70DC74CF70EC74DF70FC795
:104250004EF71BEF20F0E8CFD9FF070107EE10F073
:10426000080EEE6AE82EFDD7F60E0C6F0D69F00E03
:104270000E6F180E0F6FD9CF10F7116B126B136BF7
:10428000146B156B166B176B100E506F070E516F7A
:10429000080E4F6F0CC74BF70DC74CF70EC74DF705
:1042A0000FC74EF71BEF20F0E2CF5DF7F3CF5EF7BD
:1042B000F4CF5FF7D7EC24F01AEC26F0E0EC22F014
:1042C0001FEC26F024EC26F010EC26F02EEC26F065
:1042D00033EC26F029EC26F0E4EC23F00BEC26F08E
:1042E0005FC7F4FF5EC7F3FF5DC7E2FF5CC7E1FF96
:1042F0005BC7EAFF5AC7E9FF1100E8CFE1FFE96AAF
:10430000E1AE02D0898A01D0899AD890E136010EB7
:10431000586F000E596B58EC26F08E96010E586FB0
:10432000000E596B58EC26F08E86010E586F000E69
:10433000596B58EC26F0000E84B2010EE112E92A06
:10434000070EE964DDD7E1501200F36AF46A8D9438
:10435000030E586F000E596B58EC26F0900E7DEC52
:1043600021F0000E7DEC21F0000E7DEC21F0000E1E
:104370007DEC21F0FF0E7DEC21F00C6F0B6B0B51EF
:10438000F3120C51F412FF0E7DEC21F0F3128D8428
:10439000F3CF09F7F4CF0AF71200E8CFE9FFD96AA3
:1043A00011EC24F0E950E924C2EC22F0FBEC22F0FD
:1043B000000901E1000C0151C2EC22F0FBEC22F0FB
:1043C000000901E1000C11EC24F0D880E934C2ECC2
:1043D00022F0FBEC22F0000901E1000C16EC23F0C6
:1043E000E96E08EC25F0E9501200F36A200E07018F
:1043F000266F0F0E46EC25F000F000F000F000F004
:10440000050EAFEC11F0B2EC25F00E0E37EC25F0F6
:10441000E00B200AD8B41200050EAFEC11F0B2EC9C
:1044200025F000F000F000F000F0F32A640EF364D1
:10443000ECD7640CF36AF46A4E514D111BE0010E87
:10444000D96ED8904EBF05D04D374E37D92AF9D7FF
:10445000D890F336F4364D514B5D4E514C5905E32F
:104460004D514B5F4E514C5BF380D8904E334D33E2
:10447000D92EEED7F3CF4BF7F4CF4CF7120038EC30
:1044800026F08D84A5EC21F009C72AF60AC72BF681
:1044900006012B51EF0A180ED8B42A19D8A412001D
:1044A000030E62EC22F0D96ED9B012008D94030E87
:1044B000586F000E596B58EC26F0B70E7DEC21F0CA
:1044C0008D841200E8CFF3FFE16AE96AF350010A34
:1044D00004E0030A04E0010A04E0050E03D0350EEF
:1044E00001D0150EF36E8D94030E0701586F000E68
:1044F000596B58EC26F0F3507DEC21F0FF0E7DEC6B
:1045000021F0F46E8D84F4501200E8CFE9FF11EC35
:1045100024F0E950E924C2EC22F0FBEC22F000097F
:10452000D8B412000151C2EC22F0FBEC22F00009D9
:10453000D8B412000251C2EC22F0FBEC22F00009C8
:10454000D8A408EC25F01200070107EE10F0080EC1
:10455000EE6AE82EFDD7F60E0C6F0D69C10E0E6FD8
:10456000180E0F6F100E506F070E516F080E4F6F21
:104570000CC74BF70DC74CF70EC74DF70FC74EF7DB
:104580001BEF20F0E8CFE1FF9398D96AE1AE02D0AB
:10459000818801D08198D890E1368688010E2E6FEF
:1045A000000E2F6B52EC24F08698010E2E6F000E39
:1045B0002F6B52EC24F0D92A070ED964E7D7070CE9
:1045C0009DB09EA012009E909D90D80ECF6EFD0EC5
:1045D000CE6E010E06018C6F8A4B8B2BC80E8A5D46
:1045E000000E8B5906E38A6B8B6B850502E1954BB8
:1045F000962B9D801200D96A93888688010E2E6FB3
:10460000000E2F6B52EC24F081A807D0D92AFA0EA5
:10461000D964FAD708EC25F0000C8698010E070142
:104620002E6F000E2F6B52EC24F0010CD96A938888
:10463000E16A8688010E2E6F000E2F6B52EC24F07B
:10464000D890D93681B8D92A8698010E2E6F000EDF
:104650002F6B52EC24F0E12A070EE164EAD7D9501F
:1046600012004E514D1117E0010ED96E4EBF05D00C
:10467000D8904D374E37D92AF9D74D514B5D4E5111
:104680004C5904E34D514B5F4E514C5BD8904E3327
:104690004D33D92EF2D71200E8CFE9FFD96A27515E
:1046A00014E0010EE16E27BF04D0D8902737E12A2D
:1046B000FAD7D890D9362751E95C03E32751E95E50
:1046C000D980D8902733E12EF4D7D95012007FB289
:1046D000FED707012A51756E29C774FF2BC773FFD8
:1046E0003F0E7F16D890F2BED880F29E7F84550E82
:1046F0007E6EAA0E7E6E7F82B79C7F94D8B0F28EBB
:10470000AA0C4D6B4E6B4C514B11D8B41200430E9A
:10471000F36E030EF46E00F0F306D8A0F406F45026
:10472000800A800F010ED8B4F35CF5E207014B0755
:10473000D8A04C07E8D73F0E0E014317C00E431711
:10474000448F449D4451C70B3009446F4451F80BCA
:104750000509446F459F458D4551F80B0109456F8B
:10476000030E0F01206F030CF8EC24F0140E070168
:10477000266F000E276BB2EC25F018EC25F0140E16
:10478000266F000E276BB2EC25F041EC26F0140EDC
:10479000266F276BB2EF25F0E16A010EE96E8EEC11
:1047A00024F0D96E6C51030A03E06C51040A06E14F
:1047B000D90402E16C6B02D0010ED96ED90401E17B
:1047C000010CD966020C020C9EBA9DAA12000601C9
:1047D000902B9051FF0F0701606F120FE96EEA6A8C
:1047E0000601060EEA22AECFEFFF9051080AD8B4B8
:1047F000906B9E9A1200926A896A0F0E936E2D0E2C
:104800008A6E100E946E070E8B6E956A8C6A120E6D
:10481000966E080E8D6E976A060E8E6E986A8F6A77
:104820001200939881888688010E2E6F000E2F6BE0
:1048300052EC24F08198010E2E6F000E2F6B52EC7B
:1048400024F08698010E2E6F2F6B52EF24F02BC7A9
:10485000E1FF2CC7E2FF29C7D9FF2AC7DAFF2D07DE
:10486000D8A02E0707012D29D8B42E29D8B41200BC
:10487000E7CFDFFFE652DE52F2D7E8CFD9FF9398B9
:10488000D90402E1819801D081888688010E2E6FBB
:10489000000E2F6B52EC24F08698010E2E6F2F6BBA
:1048A00052EF24F0F36AF46A2E51F35C2F51F4585E
:1048B000D8B01200306B316B304B312B080E305DAD
:1048C000000E3159F9E3F34AF42AEED7E8CFE1FFBD
:1048D000080EE96ED96AD890E134D934D96ED890EF
:1048E000E1362751D95C02E32751D95EE92EF3D78F
:1048F000D9501200E8CFD9FF842BD90405E1310E3D
:104900008465000C846B010CD950020A02E1630E2D
:10491000F7D7C70E8465000C846B010C81B40DD0F1
:104920009E510DE09E6B9A2B030E9A6508D09A6BF0
:1049300081B405D0010EA16F02D09A6BA16BA15179
:104940001200D96ACCEC23F0F36E8705D8A41200CC
:1049500005D09B6B6DEF16F0F6EF18F0F350010ADF
:10496000F8E0030AF9E012009490949294949496DB
:104970009488949A0F015991919EC78EC78CC68ACC
:10498000C698C696C694C692C69012000DC7E1FF9F
:104990000EC7E2FF1107D8A0120707011129D8B4EA
:1049A0001229D8B412000FC7E7FFE652F3D7F2B8C6
:1049B000F2A201D0F292F0B6F0A001D0F090F0B8DF
:1049C000F0A201D0F092F0BAF0A41200F09412001C
:1049D000AEEC1BF0AAEC0BF07AEC20F0A1EC24F08A
:1049E00006018705F7E121EC07F0CFEC11F0F2D7D3
:1049F000988098968F908F9686968680240EAC6EBF
:104A0000900EAB6E080EA76E7D6A190EAF6E190C74
:104A1000939886888198010E07012E6F000E2F6BE8
:104A200052EC24F08188010E2E6F2F6B52EF24F090
:104A3000968C969E8D9C8D9E849E848C240EBA6E40
:104A4000900EA66E080EB96E7C6A670E7B6E670CC0
:104A5000D59CD59AD596D580D582D584B30ED76E00
:104A6000B40ED66ED59E0F015881F29AB40CE8CFE1
:104A7000D9FF8B92030E15EC26F0D95015EC26F0D9
:104A8000F1EC25F0E96E8B82E9501200E8CFD9FFF6
:104A90008B92020E15EC26F0D95015EC26F026511B
:104AA00015EC26F08B8212009D8A9D98A39AA398FC
:104AB000B690B6920F0157815783F28EF28CD09E3A
:104AC00012008D94010E586F000E596B58EC26F0B1
:104AD000040E7DEC21F08D8412008D94010E586F30
:104AE000000E596B58EC26F0060E7DEC21F08D84FB
:104AF0001200E8CFE1FFC6AE02D0C69EFCD7E1CFE0
:104B0000C9FFC7A0FED7C95012007FB2FED7070168
:104B10002A51756E29C774FF3F0E7F167F80735030
:104B2000120098989398939886888188E80E2E6F43
:104B3000030E2F6F52EF24F0030ECD6EAA6AD80E2B
:104B4000CF6EFD0ECE6E9D800F015893FD0C8896A2
:104B50008898889A889C88908892876A0F015899CB
:104B6000B69E120027512611D8B4120000F007019A
:104B70002607D8A02707F6D728EC25F09CEC25F0CF
:104B8000C6EC25F0D0EC25F0A7EF25F0CA96CA9820
:104B9000CA9ACA9CCA90CA92CC6ACA949D921200C0
:104BA000030EB16EB06AB36AB26A0F015897A09251
:104BB00012000601876BA26B896B8E828B828B80C1
:104BC000120044EC26F04AEC26F047EC26F050EFB9
:104BD00026F00F015D6B5C6BC16A910EC06E556B68
:104BE0001200E16AFF0E79EC25F0D96ED95012005F
:104BF000010E62EC22F03E6F3EA11200F9D78B92BB
:104C0000C00E15EC26F08B821200D39ED390D39267
:104C1000D19ED1981200A4BAA3AA1200A49A12009D
:104C2000B6BEB7AE1200B79E1200E8CFE9FFE9505A
:104C300079EF25F0F2BAF2A41200F29412009DB2BC
:104C40009EA212009E921200A0B2A1A21200A192F6
:104C50001200B6B2B7A21200B7921200B6B0B7A057
:104C60001200B790120077A012007790B2EF1FF0F9
:104C700097969682929A9694120053EC26F04DEFF6
:104C800026F097928E821200F288F19C1200F08832
:104C9000F1981200F096F18A120093848184120038
:104CA000F09AF19612009382818212008E721200A5
:024CB0001200F0
:020000040020DA
:08000000F2F3F0F8F2F8F0F160
:020000040030CA
:0A00000010032A7CFF8681FF000038
:00000001FF
